{
  "_format": "hh-sol-artifact-1",
  "contractName": "Raffle",
  "sourceName": "contracts/Raffle.sol",
  "abi": [
    {
      "inputs": [
        {
          "internalType": "address",
          "name": "vrfCoordinatorV2",
          "type": "address"
        },
        {
          "internalType": "uint256",
          "name": "entranceFee",
          "type": "uint256"
        },
        {
          "internalType": "bytes32",
          "name": "gasLane",
          "type": "bytes32"
        },
        {
          "internalType": "uint64",
          "name": "subscriptionId",
          "type": "uint64"
        },
        {
          "internalType": "uint32",
          "name": "callbackGasLimit",
          "type": "uint32"
        },
        {
          "internalType": "uint256",
          "name": "interval",
          "type": "uint256"
        }
      ],
      "stateMutability": "nonpayable",
      "type": "constructor"
    },
    {
      "inputs": [
        {
          "internalType": "address",
          "name": "have",
          "type": "address"
        },
        {
          "internalType": "address",
          "name": "want",
          "type": "address"
        }
      ],
      "name": "OnlyCoordinatorCanFulfill",
      "type": "error"
    },
    {
      "inputs": [],
      "name": "Raffle_NotEnoughETHEntered",
      "type": "error"
    },
    {
      "inputs": [],
      "name": "Raffle_TransferFailed",
      "type": "error"
    },
    {
      "inputs": [],
      "name": "Raffle__NotOpen",
      "type": "error"
    },
    {
      "inputs": [
        {
          "internalType": "uint256",
          "name": "currentBalance",
          "type": "uint256"
        },
        {
          "internalType": "uint256",
          "name": "numPlayers",
          "type": "uint256"
        },
        {
          "internalType": "uint256",
          "name": "raffleState",
          "type": "uint256"
        }
      ],
      "name": "Raffle__UpkeepNotNeeded",
      "type": "error"
    },
    {
      "anonymous": false,
      "inputs": [
        {
          "indexed": true,
          "internalType": "address",
          "name": "player",
          "type": "address"
        }
      ],
      "name": "RaffleEnter",
      "type": "event"
    },
    {
      "anonymous": false,
      "inputs": [
        {
          "indexed": true,
          "internalType": "uint256",
          "name": "requestId",
          "type": "uint256"
        }
      ],
      "name": "RequestedRaffleWinner",
      "type": "event"
    },
    {
      "anonymous": false,
      "inputs": [
        {
          "indexed": true,
          "internalType": "address",
          "name": "winner",
          "type": "address"
        }
      ],
      "name": "WinnerPicked",
      "type": "event"
    },
    {
      "inputs": [
        {
          "internalType": "bytes",
          "name": "",
          "type": "bytes"
        }
      ],
      "name": "checkUpkeep",
      "outputs": [
        {
          "internalType": "bool",
          "name": "upkeepNeeded",
          "type": "bool"
        },
        {
          "internalType": "bytes",
          "name": "",
          "type": "bytes"
        }
      ],
      "stateMutability": "nonpayable",
      "type": "function"
    },
    {
      "inputs": [],
      "name": "enterRaffle",
      "outputs": [],
      "stateMutability": "payable",
      "type": "function"
    },
    {
      "inputs": [],
      "name": "getEntranceFee",
      "outputs": [
        {
          "internalType": "uint256",
          "name": "",
          "type": "uint256"
        }
      ],
      "stateMutability": "view",
      "type": "function"
    },
    {
      "inputs": [],
      "name": "getLatestTimeStamp",
      "outputs": [
        {
          "internalType": "uint256",
          "name": "",
          "type": "uint256"
        }
      ],
      "stateMutability": "view",
      "type": "function"
    },
    {
      "inputs": [],
      "name": "getNumWords",
      "outputs": [
        {
          "internalType": "uint256",
          "name": "",
          "type": "uint256"
        }
      ],
      "stateMutability": "pure",
      "type": "function"
    },
    {
      "inputs": [],
      "name": "getNumberOfPlayers",
      "outputs": [
        {
          "internalType": "uint256",
          "name": "",
          "type": "uint256"
        }
      ],
      "stateMutability": "view",
      "type": "function"
    },
    {
      "inputs": [
        {
          "internalType": "uint256",
          "name": "index",
          "type": "uint256"
        }
      ],
      "name": "getPlayer",
      "outputs": [
        {
          "internalType": "address",
          "name": "",
          "type": "address"
        }
      ],
      "stateMutability": "view",
      "type": "function"
    },
    {
      "inputs": [],
      "name": "getRaffleState",
      "outputs": [
        {
          "internalType": "enum Raffle.RaffleState",
          "name": "",
          "type": "uint8"
        }
      ],
      "stateMutability": "view",
      "type": "function"
    },
    {
      "inputs": [],
      "name": "getRecentWinner",
      "outputs": [
        {
          "internalType": "address",
          "name": "",
          "type": "address"
        }
      ],
      "stateMutability": "view",
      "type": "function"
    },
    {
      "inputs": [],
      "name": "getRequestConfirmations",
      "outputs": [
        {
          "internalType": "uint256",
          "name": "",
          "type": "uint256"
        }
      ],
      "stateMutability": "pure",
      "type": "function"
    },
    {
      "inputs": [
        {
          "internalType": "bytes",
          "name": "",
          "type": "bytes"
        }
      ],
      "name": "performUpkeep",
      "outputs": [],
      "stateMutability": "nonpayable",
      "type": "function"
    },
    {
      "inputs": [
        {
          "internalType": "uint256",
          "name": "requestId",
          "type": "uint256"
        },
        {
          "internalType": "uint256[]",
          "name": "randomWords",
          "type": "uint256[]"
        }
      ],
      "name": "rawFulfillRandomWords",
      "outputs": [],
      "stateMutability": "nonpayable",
      "type": "function"
    },
    {
      "inputs": [],
      "name": "requestRandomWinner",
      "outputs": [],
      "stateMutability": "nonpayable",
      "type": "function"
    }
  ],
  "bytecode": "0x6101606040523480156200001257600080fd5b5060405162001951380380620019518339818101604052810190620000389190620001ad565b858073ffffffffffffffffffffffffffffffffffffffff1660808173ffffffffffffffffffffffffffffffffffffffff1660601b81525050508460a081815250508573ffffffffffffffffffffffffffffffffffffffff1660c08173ffffffffffffffffffffffffffffffffffffffff1660601b815250508360e081815250508267ffffffffffffffff166101008167ffffffffffffffff1660c01b815250508163ffffffff166101208163ffffffff1660e01b815250506000600160146101000a81548160ff02191690836001811115620001195762000118620002b5565b5b0217905550426002819055508061014081815250505050505050506200036b565b6000815190506200014b81620002e9565b92915050565b600081519050620001628162000303565b92915050565b60008151905062000179816200031d565b92915050565b600081519050620001908162000337565b92915050565b600081519050620001a78162000351565b92915050565b60008060008060008060c08789031215620001cd57620001cc620002e4565b5b6000620001dd89828a016200013a565b9650506020620001f089828a0162000168565b95505060406200020389828a0162000151565b94505060606200021689828a0162000196565b93505060806200022989828a016200017f565b92505060a06200023c89828a0162000168565b9150509295509295509295565b6000620002568262000267565b9050919050565b6000819050919050565b600073ffffffffffffffffffffffffffffffffffffffff82169050919050565b6000819050919050565b600063ffffffff82169050919050565b600067ffffffffffffffff82169050919050565b7f4e487b7100000000000000000000000000000000000000000000000000000000600052602160045260246000fd5b600080fd5b620002f48162000249565b81146200030057600080fd5b50565b6200030e816200025d565b81146200031a57600080fd5b50565b620003288162000287565b81146200033457600080fd5b50565b620003428162000291565b81146200034e57600080fd5b50565b6200035c81620002a1565b81146200036857600080fd5b50565b60805160601c60a05160c05160601c60e0516101005160c01c6101205160e01c61014051611555620003fc6000396000610928015260008181610691015261080401526000818161066e01526107e101526000818161064d01526107c001526000818161061101526107840152600081816102e601526103e3015260008181610323015261037701526115556000f3fe6080604052600436106100c25760003560e01c8063473f1ddc1161007f5780635f1b0fd8116100595780635f1b0fd8146102115780636e04ff0d1461023c578063e55ae4e81461027a578063fd6673f5146102b7576100c2565b8063473f1ddc146101a4578063522a1f0b146101cf57806353a2c19a146101e6576100c2565b806309bc33a7146100c7578063115cbaf5146100f25780631fe543e31461011d5780632cfcc53914610146578063320229eb146101505780634585e33b1461017b575b600080fd5b3480156100d357600080fd5b506100dc6102e2565b6040516100e9919061115b565b60405180910390f35b3480156100fe57600080fd5b5061010761030a565b6040516101149190611140565b60405180910390f35b34801561012957600080fd5b50610144600480360381019061013f9190610f34565b610321565b005b61014e6103e1565b005b34801561015c57600080fd5b50610165610550565b604051610172919061115b565b60405180910390f35b34801561018757600080fd5b506101a2600480360381019061019d9190610e44565b61055a565b005b3480156101b057600080fd5b506101b961072c565b6040516101c69190611079565b60405180910390f35b3480156101db57600080fd5b506101e4610756565b005b3480156101f257600080fd5b506101fb6108c9565b604051610208919061115b565b60405180910390f35b34801561021d57600080fd5b506102266108d8565b604051610233919061115b565b60405180910390f35b34801561024857600080fd5b50610263600480360381019061025e9190610e91565b6108e5565b6040516102719291906110bd565b60405180910390f35b34801561028657600080fd5b506102a1600480360381019061029c9190610eda565b610992565b6040516102ae9190611079565b60405180910390f35b3480156102c357600080fd5b506102cc6109d9565b6040516102d9919061115b565b60405180910390f35b60007f0000000000000000000000000000000000000000000000000000000000000000905090565b6000600160149054906101000a900460ff16905090565b7f000000000000000000000000000000000000000000000000000000000000000073ffffffffffffffffffffffffffffffffffffffff163373ffffffffffffffffffffffffffffffffffffffff16146103d357337f00000000000000000000000000000000000000000000000000000000000000006040517f1cf993f40000000000000000000000000000000000000000000000000000000081526004016103ca929190611094565b60405180910390fd5b6103dd82826109e5565b5050565b7f000000000000000000000000000000000000000000000000000000000000000034101561043b576040517f74938f2700000000000000000000000000000000000000000000000000000000815260040160405180910390fd5b6000600181111561044f5761044e611435565b5b600160149054906101000a900460ff16600181111561047157610470611435565b5b146104a8576040517f1425571c00000000000000000000000000000000000000000000000000000000815260040160405180910390fd5b6000339080600181540180825580915050600190039060005260206000200160009091909190916101000a81548173ffffffffffffffffffffffffffffffffffffffff021916908373ffffffffffffffffffffffffffffffffffffffff1602179055503373ffffffffffffffffffffffffffffffffffffffff167f0805e1d667bddb8a95f0f09880cf94f403fb596ce79928d9f29b74203ba284d460405160405180910390a2565b6000600254905090565b6000610574604051806020016040528060008152506108e5565b509050806105e35747600080549050600160149054906101000a900460ff1660018111156105a5576105a4611435565b5b6040517f584327aa0000000000000000000000000000000000000000000000000000000081526004016105da93929190611176565b60405180910390fd5b60018060146101000a81548160ff0219169083600181111561060857610607611435565b5b021790555060007f000000000000000000000000000000000000000000000000000000000000000073ffffffffffffffffffffffffffffffffffffffff16635d3b1d307f00000000000000000000000000000000000000000000000000000000000000007f000000000000000000000000000000000000000000000000000000000000000060037f000000000000000000000000000000000000000000000000000000000000000060016040518663ffffffff1660e01b81526004016106d29594939291906110ed565b602060405180830381600087803b1580156106ec57600080fd5b505af1158015610700573d6000803e3d6000fd5b505050506040513d601f19601f820116820180604052508101906107249190610f07565b905050505050565b6000600160009054906101000a900473ffffffffffffffffffffffffffffffffffffffff16905090565b60018060146101000a81548160ff0219169083600181111561077b5761077a611435565b5b021790555060007f000000000000000000000000000000000000000000000000000000000000000073ffffffffffffffffffffffffffffffffffffffff16635d3b1d307f00000000000000000000000000000000000000000000000000000000000000007f000000000000000000000000000000000000000000000000000000000000000060037f000000000000000000000000000000000000000000000000000000000000000060016040518663ffffffff1660e01b81526004016108459594939291906110ed565b602060405180830381600087803b15801561085f57600080fd5b505af1158015610873573d6000803e3d6000fd5b505050506040513d601f19601f820116820180604052508101906108979190610f07565b9050807fcd6e45c8998311cab7e9d4385596cac867e20a0587194b954fa3a731c93ce78b60405160405180910390a250565b6000600163ffffffff16905090565b6000600361ffff16905090565b600060606000600160149054906101000a900460ff16600181111561090d5761090c611435565b5b6000600181111561092157610920611435565b5b14905060007f0000000000000000000000000000000000000000000000000000000000000000600254426109559190611256565b119050600080600080549050119050600080471190508380156109755750825b801561097e5750815b80156109875750805b955050505050915091565b60008082815481106109a7576109a6611464565b5b9060005260206000200160009054906101000a900473ffffffffffffffffffffffffffffffffffffffff169050919050565b60008080549050905090565b6000808054905082600081518110610a00576109ff611464565b5b6020026020010151610a1291906113a6565b90506000808281548110610a2957610a28611464565b5b9060005260206000200160009054906101000a900473ffffffffffffffffffffffffffffffffffffffff16905080600160006101000a81548173ffffffffffffffffffffffffffffffffffffffff021916908373ffffffffffffffffffffffffffffffffffffffff1602179055506000600160146101000a81548160ff02191690836001811115610abd57610abc611435565b5b0217905550600067ffffffffffffffff811115610add57610adc611493565b5b604051908082528060200260200182016040528015610b0b5781602001602082028036833780820191505090505b5060009080519060200190610b21929190610c0f565b5060008173ffffffffffffffffffffffffffffffffffffffff1647604051610b4890611064565b60006040518083038185875af1925050503d8060008114610b85576040519150601f19603f3d011682016040523d82523d6000602084013e610b8a565b606091505b5050905080610bc5576040517fba31c4f300000000000000000000000000000000000000000000000000000000815260040160405180910390fd5b8173ffffffffffffffffffffffffffffffffffffffff167f5b690ec4a06fe979403046eaeea5b3ce38524683c3001f662c8b5a829632f7df60405160405180910390a25050505050565b828054828255906000526020600020908101928215610c88579160200282015b82811115610c875782518260006101000a81548173ffffffffffffffffffffffffffffffffffffffff021916908373ffffffffffffffffffffffffffffffffffffffff16021790555091602001919060010190610c2f565b5b509050610c959190610c99565b5090565b5b80821115610cb2576000816000905550600101610c9a565b5090565b6000610cc9610cc4846111d2565b6111ad565b90508083825260208201905082856020860282011115610cec57610ceb6114cc565b5b60005b85811015610d1c5781610d028882610e1a565b845260208401935060208301925050600181019050610cef565b5050509392505050565b6000610d39610d34846111fe565b6111ad565b905082815260208101848484011115610d5557610d546114d1565b5b610d60848285611333565b509392505050565b600082601f830112610d7d57610d7c6114c7565b5b8135610d8d848260208601610cb6565b91505092915050565b60008083601f840112610dac57610dab6114c7565b5b8235905067ffffffffffffffff811115610dc957610dc86114c2565b5b602083019150836001820283011115610de557610de46114cc565b5b9250929050565b600082601f830112610e0157610e006114c7565b5b8135610e11848260208601610d26565b91505092915050565b600081359050610e2981611508565b92915050565b600081519050610e3e81611508565b92915050565b60008060208385031215610e5b57610e5a6114db565b5b600083013567ffffffffffffffff811115610e7957610e786114d6565b5b610e8585828601610d96565b92509250509250929050565b600060208284031215610ea757610ea66114db565b5b600082013567ffffffffffffffff811115610ec557610ec46114d6565b5b610ed184828501610dec565b91505092915050565b600060208284031215610ef057610eef6114db565b5b6000610efe84828501610e1a565b91505092915050565b600060208284031215610f1d57610f1c6114db565b5b6000610f2b84828501610e2f565b91505092915050565b60008060408385031215610f4b57610f4a6114db565b5b6000610f5985828601610e1a565b925050602083013567ffffffffffffffff811115610f7a57610f796114d6565b5b610f8685828601610d68565b9150509250929050565b610f998161128a565b82525050565b610fa88161129c565b82525050565b610fb7816112a8565b82525050565b6000610fc88261122f565b610fd2818561123a565b9350610fe2818560208601611342565b610feb816114e0565b840191505092915050565b610fff81611321565b82525050565b600061101260008361124b565b915061101d826114f1565b600082019050919050565b611031816112c5565b82525050565b611040816112f3565b82525050565b61104f816112fd565b82525050565b61105e8161130d565b82525050565b600061106f82611005565b9150819050919050565b600060208201905061108e6000830184610f90565b92915050565b60006040820190506110a96000830185610f90565b6110b66020830184610f90565b9392505050565b60006040820190506110d26000830185610f9f565b81810360208301526110e48184610fbd565b90509392505050565b600060a0820190506111026000830188610fae565b61110f6020830187611055565b61111c6040830186611028565b6111296060830185611046565b6111366080830184611046565b9695505050505050565b60006020820190506111556000830184610ff6565b92915050565b60006020820190506111706000830184611037565b92915050565b600060608201905061118b6000830186611037565b6111986020830185611037565b6111a56040830184611037565b949350505050565b60006111b76111c8565b90506111c38282611375565b919050565b6000604051905090565b600067ffffffffffffffff8211156111ed576111ec611493565b5b602082029050602081019050919050565b600067ffffffffffffffff82111561121957611218611493565b5b611222826114e0565b9050602081019050919050565b600081519050919050565b600082825260208201905092915050565b600081905092915050565b6000611261826112f3565b915061126c836112f3565b92508282101561127f5761127e6113d7565b5b828203905092915050565b6000611295826112d3565b9050919050565b60008115159050919050565b6000819050919050565b60008190506112c0826114f4565b919050565b600061ffff82169050919050565b600073ffffffffffffffffffffffffffffffffffffffff82169050919050565b6000819050919050565b600063ffffffff82169050919050565b600067ffffffffffffffff82169050919050565b600061132c826112b2565b9050919050565b82818337600083830152505050565b60005b83811015611360578082015181840152602081019050611345565b8381111561136f576000848401525b50505050565b61137e826114e0565b810181811067ffffffffffffffff8211171561139d5761139c611493565b5b80604052505050565b60006113b1826112f3565b91506113bc836112f3565b9250826113cc576113cb611406565b5b828206905092915050565b7f4e487b7100000000000000000000000000000000000000000000000000000000600052601160045260246000fd5b7f4e487b7100000000000000000000000000000000000000000000000000000000600052601260045260246000fd5b7f4e487b7100000000000000000000000000000000000000000000000000000000600052602160045260246000fd5b7f4e487b7100000000000000000000000000000000000000000000000000000000600052603260045260246000fd5b7f4e487b7100000000000000000000000000000000000000000000000000000000600052604160045260246000fd5b600080fd5b600080fd5b600080fd5b600080fd5b600080fd5b600080fd5b6000601f19601f8301169050919050565b50565b6002811061150557611504611435565b5b50565b611511816112f3565b811461151c57600080fd5b5056fea2646970667358221220799bb96cd258a89266617292c423f27e455e818ace33cb7ea445716158b74df564736f6c63430008070033",
  "linkReferences": {},
  "deployedLinkReferences": {}
}