{
  "address": "0xCf7Ed3AccA5a467e9e704C703E8D87F634fB0Fc9",
  "abi": [
    {
      "inputs": [
        {
          "internalType": "address",
          "name": "vrfCoordinatorV2",
          "type": "address"
        },
        {
          "internalType": "uint64",
          "name": "subscriptionId",
          "type": "uint64"
        },
        {
          "internalType": "bytes32",
          "name": "gasLane",
          "type": "bytes32"
        },
        {
          "internalType": "uint256",
          "name": "interval",
          "type": "uint256"
        },
        {
          "internalType": "uint32",
          "name": "callbackGasLimit",
          "type": "uint32"
        },
        {
          "internalType": "uint256",
          "name": "entranceFee",
          "type": "uint256"
        }
      ],
      "stateMutability": "nonpayable",
      "type": "constructor"
    },
    {
      "inputs": [
        {
          "internalType": "address",
          "name": "have",
          "type": "address"
        },
        {
          "internalType": "address",
          "name": "want",
          "type": "address"
        }
      ],
      "name": "OnlyCoordinatorCanFulfill",
      "type": "error"
    },
    {
      "inputs": [],
      "name": "Raffle__NotEnoughETHEntered",
      "type": "error"
    },
    {
      "inputs": [],
      "name": "Raffle__NotOpen",
      "type": "error"
    },
    {
      "inputs": [],
      "name": "Raffle__TransferFailed",
      "type": "error"
    },
    {
      "inputs": [
        {
          "internalType": "uint256",
          "name": "currentBalance",
          "type": "uint256"
        },
        {
          "internalType": "uint256",
          "name": "numPlayers",
          "type": "uint256"
        },
        {
          "internalType": "uint256",
          "name": "raffleState",
          "type": "uint256"
        }
      ],
      "name": "Raffle__UpkeepNotNeeded",
      "type": "error"
    },
    {
      "anonymous": false,
      "inputs": [
        {
          "indexed": true,
          "internalType": "address",
          "name": "player",
          "type": "address"
        }
      ],
      "name": "RaffleEnter",
      "type": "event"
    },
    {
      "anonymous": false,
      "inputs": [
        {
          "indexed": true,
          "internalType": "uint256",
          "name": "requestId",
          "type": "uint256"
        }
      ],
      "name": "RequestedRaffleWinner",
      "type": "event"
    },
    {
      "anonymous": false,
      "inputs": [
        {
          "indexed": true,
          "internalType": "address",
          "name": "winner",
          "type": "address"
        }
      ],
      "name": "WinnerPicked",
      "type": "event"
    },
    {
      "inputs": [
        {
          "internalType": "bytes",
          "name": "",
          "type": "bytes"
        }
      ],
      "name": "checkUpkeep",
      "outputs": [
        {
          "internalType": "bool",
          "name": "upkeepNeeded",
          "type": "bool"
        },
        {
          "internalType": "bytes",
          "name": "",
          "type": "bytes"
        }
      ],
      "stateMutability": "nonpayable",
      "type": "function"
    },
    {
      "inputs": [],
      "name": "enterRaffle",
      "outputs": [],
      "stateMutability": "payable",
      "type": "function"
    },
    {
      "inputs": [],
      "name": "getEntranceFee",
      "outputs": [
        {
          "internalType": "uint256",
          "name": "",
          "type": "uint256"
        }
      ],
      "stateMutability": "view",
      "type": "function"
    },
    {
      "inputs": [],
      "name": "getInterval",
      "outputs": [
        {
          "internalType": "uint256",
          "name": "",
          "type": "uint256"
        }
      ],
      "stateMutability": "view",
      "type": "function"
    },
    {
      "inputs": [],
      "name": "getLatestTimeStamp",
      "outputs": [
        {
          "internalType": "uint256",
          "name": "",
          "type": "uint256"
        }
      ],
      "stateMutability": "view",
      "type": "function"
    },
    {
      "inputs": [],
      "name": "getNumWords",
      "outputs": [
        {
          "internalType": "uint256",
          "name": "",
          "type": "uint256"
        }
      ],
      "stateMutability": "pure",
      "type": "function"
    },
    {
      "inputs": [],
      "name": "getNumberOfPlayers",
      "outputs": [
        {
          "internalType": "uint256",
          "name": "",
          "type": "uint256"
        }
      ],
      "stateMutability": "view",
      "type": "function"
    },
    {
      "inputs": [
        {
          "internalType": "uint256",
          "name": "index",
          "type": "uint256"
        }
      ],
      "name": "getPlayer",
      "outputs": [
        {
          "internalType": "address",
          "name": "",
          "type": "address"
        }
      ],
      "stateMutability": "view",
      "type": "function"
    },
    {
      "inputs": [],
      "name": "getRaffleState",
      "outputs": [
        {
          "internalType": "enum Raffle.RaffleState",
          "name": "",
          "type": "uint8"
        }
      ],
      "stateMutability": "view",
      "type": "function"
    },
    {
      "inputs": [],
      "name": "getRecentWinner",
      "outputs": [
        {
          "internalType": "address",
          "name": "",
          "type": "address"
        }
      ],
      "stateMutability": "view",
      "type": "function"
    },
    {
      "inputs": [],
      "name": "getRequestConfirmations",
      "outputs": [
        {
          "internalType": "uint256",
          "name": "",
          "type": "uint256"
        }
      ],
      "stateMutability": "pure",
      "type": "function"
    },
    {
      "inputs": [
        {
          "internalType": "bytes",
          "name": "",
          "type": "bytes"
        }
      ],
      "name": "performUpkeep",
      "outputs": [],
      "stateMutability": "nonpayable",
      "type": "function"
    },
    {
      "inputs": [
        {
          "internalType": "uint256",
          "name": "requestId",
          "type": "uint256"
        },
        {
          "internalType": "uint256[]",
          "name": "randomWords",
          "type": "uint256[]"
        }
      ],
      "name": "rawFulfillRandomWords",
      "outputs": [],
      "stateMutability": "nonpayable",
      "type": "function"
    },
    {
      "inputs": [],
      "name": "requestRandomWinner",
      "outputs": [],
      "stateMutability": "nonpayable",
      "type": "function"
    }
  ],
  "transactionHash": "0xed7555a3a30596d24fbe08a0cf63411c92c2a2c1220cae3741d4796a402e9a0c",
  "args": [
    "0x5FbDB2315678afecb367f032d93F642f64180aa3",
    "1",
    "0x474e34a077df58807dbe9c96d3c009b23b3c6d0cce433e59bbf5b34f823bc56c",
    "30",
    "500000",
    "10000000000000000"
  ],
  "numDeployments": 1,
  "solcInputHash": "39ba3ed34a8b9264445c629f4fa63883",
  "bytecode": "0x6101606040523480156200001257600080fd5b50604051620019c6380380620019c68339818101604052810190620000389190620001ad565b858073ffffffffffffffffffffffffffffffffffffffff1660808173ffffffffffffffffffffffffffffffffffffffff1660601b81525050508573ffffffffffffffffffffffffffffffffffffffff1660c08173ffffffffffffffffffffffffffffffffffffffff1660601b815250508360e081815250508261014081815250508467ffffffffffffffff166101008167ffffffffffffffff1660c01b815250508060a081815250506000600160146101000a81548160ff021916908360018111156200010a5762000109620002b5565b5b0217905550426002819055508163ffffffff166101208163ffffffff1660e01b815250505050505050506200036b565b6000815190506200014b81620002e9565b92915050565b600081519050620001628162000303565b92915050565b60008151905062000179816200031d565b92915050565b600081519050620001908162000337565b92915050565b600081519050620001a78162000351565b92915050565b60008060008060008060c08789031215620001cd57620001cc620002e4565b5b6000620001dd89828a016200013a565b9650506020620001f089828a0162000196565b95505060406200020389828a0162000151565b94505060606200021689828a0162000168565b93505060806200022989828a016200017f565b92505060a06200023c89828a0162000168565b9150509295509295509295565b6000620002568262000267565b9050919050565b6000819050919050565b600073ffffffffffffffffffffffffffffffffffffffff82169050919050565b6000819050919050565b600063ffffffff82169050919050565b600067ffffffffffffffff82169050919050565b7f4e487b7100000000000000000000000000000000000000000000000000000000600052602160045260246000fd5b600080fd5b620002f48162000249565b81146200030057600080fd5b50565b6200030e816200025d565b81146200031a57600080fd5b50565b620003288162000287565b81146200033457600080fd5b50565b620003428162000291565b81146200034e57600080fd5b50565b6200035c81620002a1565b81146200036857600080fd5b50565b60805160601c60a05160c05160601c60e0516101005160c01c6101205160e01c610140516115c3620004036000396000818161096e01526109dc0152600081816106d7015261084a0152600081816106b40152610827015260008181610693015261080601526000818161065701526107ca01526000818161032c015261042901526000818161036901526103bd01526115c36000f3fe6080604052600436106100dd5760003560e01c8063522a1f0b1161007f5780636e04ff0d116100595780636e04ff0d1461025757806391ad27b414610295578063e55ae4e8146102c0578063fd6673f5146102fd576100dd565b8063522a1f0b146101ea57806353a2c19a146102015780635f1b0fd81461022c576100dd565b80632cfcc539116100bb5780632cfcc53914610161578063320229eb1461016b5780634585e33b14610196578063473f1ddc146101bf576100dd565b806309bc33a7146100e2578063115cbaf51461010d5780631fe543e314610138575b600080fd5b3480156100ee57600080fd5b506100f7610328565b60405161010491906111c9565b60405180910390f35b34801561011957600080fd5b50610122610350565b60405161012f91906111ae565b60405180910390f35b34801561014457600080fd5b5061015f600480360381019061015a9190610fa2565b610367565b005b610169610427565b005b34801561017757600080fd5b50610180610596565b60405161018d91906111c9565b60405180910390f35b3480156101a257600080fd5b506101bd60048036038101906101b89190610eb2565b6105a0565b005b3480156101cb57600080fd5b506101d4610772565b6040516101e191906110e7565b60405180910390f35b3480156101f657600080fd5b506101ff61079c565b005b34801561020d57600080fd5b5061021661090f565b60405161022391906111c9565b60405180910390f35b34801561023857600080fd5b5061024161091e565b60405161024e91906111c9565b60405180910390f35b34801561026357600080fd5b5061027e60048036038101906102799190610eff565b61092b565b60405161028c92919061112b565b60405180910390f35b3480156102a157600080fd5b506102aa6109d8565b6040516102b791906111c9565b60405180910390f35b3480156102cc57600080fd5b506102e760048036038101906102e29190610f48565b610a00565b6040516102f491906110e7565b60405180910390f35b34801561030957600080fd5b50610312610a47565b60405161031f91906111c9565b60405180910390f35b60007f0000000000000000000000000000000000000000000000000000000000000000905090565b6000600160149054906101000a900460ff16905090565b7f000000000000000000000000000000000000000000000000000000000000000073ffffffffffffffffffffffffffffffffffffffff163373ffffffffffffffffffffffffffffffffffffffff161461041957337f00000000000000000000000000000000000000000000000000000000000000006040517f1cf993f4000000000000000000000000000000000000000000000000000000008152600401610410929190611102565b60405180910390fd5b6104238282610a53565b5050565b7f0000000000000000000000000000000000000000000000000000000000000000341015610481576040517fbd4e069500000000000000000000000000000000000000000000000000000000815260040160405180910390fd5b60006001811115610495576104946114a3565b5b600160149054906101000a900460ff1660018111156104b7576104b66114a3565b5b146104ee576040517f1425571c00000000000000000000000000000000000000000000000000000000815260040160405180910390fd5b6000339080600181540180825580915050600190039060005260206000200160009091909190916101000a81548173ffffffffffffffffffffffffffffffffffffffff021916908373ffffffffffffffffffffffffffffffffffffffff1602179055503373ffffffffffffffffffffffffffffffffffffffff167f0805e1d667bddb8a95f0f09880cf94f403fb596ce79928d9f29b74203ba284d460405160405180910390a2565b6000600254905090565b60006105ba6040518060200160405280600081525061092b565b509050806106295747600080549050600160149054906101000a900460ff1660018111156105eb576105ea6114a3565b5b6040517f584327aa000000000000000000000000000000000000000000000000000000008152600401610620939291906111e4565b60405180910390fd5b60018060146101000a81548160ff0219169083600181111561064e5761064d6114a3565b5b021790555060007f000000000000000000000000000000000000000000000000000000000000000073ffffffffffffffffffffffffffffffffffffffff16635d3b1d307f00000000000000000000000000000000000000000000000000000000000000007f000000000000000000000000000000000000000000000000000000000000000060037f000000000000000000000000000000000000000000000000000000000000000060016040518663ffffffff1660e01b815260040161071895949392919061115b565b602060405180830381600087803b15801561073257600080fd5b505af1158015610746573d6000803e3d6000fd5b505050506040513d601f19601f8201168201806040525081019061076a9190610f75565b905050505050565b6000600160009054906101000a900473ffffffffffffffffffffffffffffffffffffffff16905090565b60018060146101000a81548160ff021916908360018111156107c1576107c06114a3565b5b021790555060007f000000000000000000000000000000000000000000000000000000000000000073ffffffffffffffffffffffffffffffffffffffff16635d3b1d307f00000000000000000000000000000000000000000000000000000000000000007f000000000000000000000000000000000000000000000000000000000000000060037f000000000000000000000000000000000000000000000000000000000000000060016040518663ffffffff1660e01b815260040161088b95949392919061115b565b602060405180830381600087803b1580156108a557600080fd5b505af11580156108b9573d6000803e3d6000fd5b505050506040513d601f19601f820116820180604052508101906108dd9190610f75565b9050807fcd6e45c8998311cab7e9d4385596cac867e20a0587194b954fa3a731c93ce78b60405160405180910390a250565b6000600163ffffffff16905090565b6000600361ffff16905090565b600060606000600160149054906101000a900460ff166001811115610953576109526114a3565b5b60006001811115610967576109666114a3565b5b14905060007f00000000000000000000000000000000000000000000000000000000000000006002544261099b91906112c4565b119050600080600080549050119050600080471190508380156109bb5750825b80156109c45750815b80156109cd5750805b955050505050915091565b60007f0000000000000000000000000000000000000000000000000000000000000000905090565b6000808281548110610a1557610a146114d2565b5b9060005260206000200160009054906101000a900473ffffffffffffffffffffffffffffffffffffffff169050919050565b60008080549050905090565b6000808054905082600081518110610a6e57610a6d6114d2565b5b6020026020010151610a809190611414565b90506000808281548110610a9757610a966114d2565b5b9060005260206000200160009054906101000a900473ffffffffffffffffffffffffffffffffffffffff16905080600160006101000a81548173ffffffffffffffffffffffffffffffffffffffff021916908373ffffffffffffffffffffffffffffffffffffffff1602179055506000600160146101000a81548160ff02191690836001811115610b2b57610b2a6114a3565b5b0217905550600067ffffffffffffffff811115610b4b57610b4a611501565b5b604051908082528060200260200182016040528015610b795781602001602082028036833780820191505090505b5060009080519060200190610b8f929190610c7d565b5060008173ffffffffffffffffffffffffffffffffffffffff1647604051610bb6906110d2565b60006040518083038185875af1925050503d8060008114610bf3576040519150601f19603f3d011682016040523d82523d6000602084013e610bf8565b606091505b5050905080610c33576040517fa1d04b3900000000000000000000000000000000000000000000000000000000815260040160405180910390fd5b8173ffffffffffffffffffffffffffffffffffffffff167f5b690ec4a06fe979403046eaeea5b3ce38524683c3001f662c8b5a829632f7df60405160405180910390a25050505050565b828054828255906000526020600020908101928215610cf6579160200282015b82811115610cf55782518260006101000a81548173ffffffffffffffffffffffffffffffffffffffff021916908373ffffffffffffffffffffffffffffffffffffffff16021790555091602001919060010190610c9d565b5b509050610d039190610d07565b5090565b5b80821115610d20576000816000905550600101610d08565b5090565b6000610d37610d3284611240565b61121b565b90508083825260208201905082856020860282011115610d5a57610d5961153a565b5b60005b85811015610d8a5781610d708882610e88565b845260208401935060208301925050600181019050610d5d565b5050509392505050565b6000610da7610da28461126c565b61121b565b905082815260208101848484011115610dc357610dc261153f565b5b610dce8482856113a1565b509392505050565b600082601f830112610deb57610dea611535565b5b8135610dfb848260208601610d24565b91505092915050565b60008083601f840112610e1a57610e19611535565b5b8235905067ffffffffffffffff811115610e3757610e36611530565b5b602083019150836001820283011115610e5357610e5261153a565b5b9250929050565b600082601f830112610e6f57610e6e611535565b5b8135610e7f848260208601610d94565b91505092915050565b600081359050610e9781611576565b92915050565b600081519050610eac81611576565b92915050565b60008060208385031215610ec957610ec8611549565b5b600083013567ffffffffffffffff811115610ee757610ee6611544565b5b610ef385828601610e04565b92509250509250929050565b600060208284031215610f1557610f14611549565b5b600082013567ffffffffffffffff811115610f3357610f32611544565b5b610f3f84828501610e5a565b91505092915050565b600060208284031215610f5e57610f5d611549565b5b6000610f6c84828501610e88565b91505092915050565b600060208284031215610f8b57610f8a611549565b5b6000610f9984828501610e9d565b91505092915050565b60008060408385031215610fb957610fb8611549565b5b6000610fc785828601610e88565b925050602083013567ffffffffffffffff811115610fe857610fe7611544565b5b610ff485828601610dd6565b9150509250929050565b611007816112f8565b82525050565b6110168161130a565b82525050565b61102581611316565b82525050565b60006110368261129d565b61104081856112a8565b93506110508185602086016113b0565b6110598161154e565b840191505092915050565b61106d8161138f565b82525050565b60006110806000836112b9565b915061108b8261155f565b600082019050919050565b61109f81611333565b82525050565b6110ae81611361565b82525050565b6110bd8161136b565b82525050565b6110cc8161137b565b82525050565b60006110dd82611073565b9150819050919050565b60006020820190506110fc6000830184610ffe565b92915050565b60006040820190506111176000830185610ffe565b6111246020830184610ffe565b9392505050565b6000604082019050611140600083018561100d565b8181036020830152611152818461102b565b90509392505050565b600060a082019050611170600083018861101c565b61117d60208301876110c3565b61118a6040830186611096565b61119760608301856110b4565b6111a460808301846110b4565b9695505050505050565b60006020820190506111c36000830184611064565b92915050565b60006020820190506111de60008301846110a5565b92915050565b60006060820190506111f960008301866110a5565b61120660208301856110a5565b61121360408301846110a5565b949350505050565b6000611225611236565b905061123182826113e3565b919050565b6000604051905090565b600067ffffffffffffffff82111561125b5761125a611501565b5b602082029050602081019050919050565b600067ffffffffffffffff82111561128757611286611501565b5b6112908261154e565b9050602081019050919050565b600081519050919050565b600082825260208201905092915050565b600081905092915050565b60006112cf82611361565b91506112da83611361565b9250828210156112ed576112ec611445565b5b828203905092915050565b600061130382611341565b9050919050565b60008115159050919050565b6000819050919050565b600081905061132e82611562565b919050565b600061ffff82169050919050565b600073ffffffffffffffffffffffffffffffffffffffff82169050919050565b6000819050919050565b600063ffffffff82169050919050565b600067ffffffffffffffff82169050919050565b600061139a82611320565b9050919050565b82818337600083830152505050565b60005b838110156113ce5780820151818401526020810190506113b3565b838111156113dd576000848401525b50505050565b6113ec8261154e565b810181811067ffffffffffffffff8211171561140b5761140a611501565b5b80604052505050565b600061141f82611361565b915061142a83611361565b92508261143a57611439611474565b5b828206905092915050565b7f4e487b7100000000000000000000000000000000000000000000000000000000600052601160045260246000fd5b7f4e487b7100000000000000000000000000000000000000000000000000000000600052601260045260246000fd5b7f4e487b7100000000000000000000000000000000000000000000000000000000600052602160045260246000fd5b7f4e487b7100000000000000000000000000000000000000000000000000000000600052603260045260246000fd5b7f4e487b7100000000000000000000000000000000000000000000000000000000600052604160045260246000fd5b600080fd5b600080fd5b600080fd5b600080fd5b600080fd5b600080fd5b6000601f19601f8301169050919050565b50565b60028110611573576115726114a3565b5b50565b61157f81611361565b811461158a57600080fd5b5056fea2646970667358221220f1c359b50b93534e0b1a99ab7988dc6b90d4430def41d849eebc4fc929b9f50f64736f6c63430008070033",
  "devdoc": {
    "kind": "dev",
    "methods": {},
    "version": 1
  },
  "userdoc": {
    "kind": "user",
    "methods": {},
    "version": 1
  },
  "storageLayout": {
    "storage": [
      {
        "astId": 1165,
        "contract": "contracts/Raffle.sol:Raffle",
        "label": "s_players",
        "offset": 0,
        "slot": "0",
        "type": "t_array(t_address_payable)dyn_storage"
      },
      {
        "astId": 1182,
        "contract": "contracts/Raffle.sol:Raffle",
        "label": "s_recentWinner",
        "offset": 0,
        "slot": "1",
        "type": "t_address"
      },
      {
        "astId": 1185,
        "contract": "contracts/Raffle.sol:Raffle",
        "label": "s_raffleState",
        "offset": 20,
        "slot": "1",
        "type": "t_enum(RaffleState)1160"
      },
      {
        "astId": 1187,
        "contract": "contracts/Raffle.sol:Raffle",
        "label": "s_lastTimeStamp",
        "offset": 0,
        "slot": "2",
        "type": "t_uint256"
      }
    ],
    "types": {
      "t_address": {
        "encoding": "inplace",
        "label": "address",
        "numberOfBytes": "20"
      },
      "t_address_payable": {
        "encoding": "inplace",
        "label": "address payable",
        "numberOfBytes": "20"
      },
      "t_array(t_address_payable)dyn_storage": {
        "base": "t_address_payable",
        "encoding": "dynamic_array",
        "label": "address payable[]",
        "numberOfBytes": "32"
      },
      "t_enum(RaffleState)1160": {
        "encoding": "inplace",
        "label": "enum Raffle.RaffleState",
        "numberOfBytes": "1"
      },
      "t_uint256": {
        "encoding": "inplace",
        "label": "uint256",
        "numberOfBytes": "32"
      }
    }
  }
}